{
  "contractName": "TransactionwithEmail",
  "abi": [
    {
      "anonymous": false,
      "inputs": [
        {
          "indexed": false,
          "internalType": "string",
          "name": "action",
          "type": "string"
        },
        {
          "indexed": false,
          "internalType": "address",
          "name": "Registerer",
          "type": "address"
        }
      ],
      "name": "FileUploadedEvent",
      "type": "event"
    },
    {
      "inputs": [],
      "name": "contractName",
      "outputs": [
        {
          "internalType": "string",
          "name": "",
          "type": "string"
        }
      ],
      "stateMutability": "view",
      "type": "function",
      "constant": true
    },
    {
      "inputs": [
        {
          "internalType": "string",
          "name": "Email",
          "type": "string"
        }
      ],
      "name": "getAttachedAccount",
      "outputs": [
        {
          "internalType": "address payable",
          "name": "",
          "type": "address"
        }
      ],
      "stateMutability": "view",
      "type": "function",
      "constant": true
    },
    {
      "inputs": [
        {
          "internalType": "string",
          "name": "Email",
          "type": "string"
        }
      ],
      "name": "getRegisterEmailinfo",
      "outputs": [
        {
          "components": [
            {
              "internalType": "string",
              "name": "WalletInfo",
              "type": "string"
            },
            {
              "internalType": "uint256",
              "name": "RegistrationTime",
              "type": "uint256"
            },
            {
              "internalType": "string",
              "name": "RegistererIpaddress",
              "type": "string"
            },
            {
              "internalType": "address",
              "name": "Registerer",
              "type": "address"
            }
          ],
          "internalType": "struct TransactionwithEmail.Info",
          "name": "",
          "type": "tuple"
        }
      ],
      "stateMutability": "view",
      "type": "function",
      "constant": true
    },
    {
      "inputs": [
        {
          "internalType": "string",
          "name": "WalletInfo",
          "type": "string"
        },
        {
          "internalType": "string",
          "name": "RegistererIpaddress",
          "type": "string"
        },
        {
          "internalType": "address",
          "name": "Registerer",
          "type": "address"
        },
        {
          "internalType": "string",
          "name": "Email",
          "type": "string"
        }
      ],
      "name": "RegisterEmail",
      "outputs": [],
      "stateMutability": "nonpayable",
      "type": "function"
    },
    {
      "inputs": [
        {
          "internalType": "string",
          "name": "Email",
          "type": "string"
        }
      ],
      "name": "Transaction",
      "outputs": [],
      "stateMutability": "payable",
      "type": "function",
      "payable": true
    }
  ],
  "bytecode": "0x60806040526040518060400160405280601d81526020017f5472616e73616374696f6e205769746820456d61696c2045637250616c000000815250600090816200004a9190620002d9565b503480156200005857600080fd5b50620003c0565b600081519050919050565b7f4e487b7100000000000000000000000000000000000000000000000000000000600052604160045260246000fd5b7f4e487b7100000000000000000000000000000000000000000000000000000000600052602260045260246000fd5b60006002820490506001821680620000e157607f821691505b602082108103620000f757620000f662000099565b5b50919050565b60008190508160005260206000209050919050565b60006020601f8301049050919050565b600082821b905092915050565b600060088302620001617fffffffffffffffffffffffffffffffffffffffffffffffffffffffffffffffff8262000122565b6200016d868362000122565b95508019841693508086168417925050509392505050565b6000819050919050565b6000819050919050565b6000620001ba620001b4620001ae8462000185565b6200018f565b62000185565b9050919050565b6000819050919050565b620001d68362000199565b620001ee620001e582620001c1565b8484546200012f565b825550505050565b600090565b62000205620001f6565b62000212818484620001cb565b505050565b5b818110156200023a576200022e600082620001fb565b60018101905062000218565b5050565b601f82111562000289576200025381620000fd565b6200025e8462000112565b810160208510156200026e578190505b620002866200027d8562000112565b83018262000217565b50505b505050565b600082821c905092915050565b6000620002ae600019846008026200028e565b1980831691505092915050565b6000620002c983836200029b565b9150826002028217905092915050565b620002e4826200005f565b67ffffffffffffffff8111156200030057620002ff6200006a565b5b6200030c8254620000c8565b620003198282856200023e565b600060209050601f8311600181146200035157600084156200033c578287015190505b620003488582620002bb565b865550620003b8565b601f1984166200036186620000fd565b60005b828110156200038b5784890151825560018201915060208501945060208101905062000364565b86831015620003ab5784890151620003a7601f8916826200029b565b8355505b6001600288020188555050505b505050505050565b610f1b80620003d06000396000f3fe60806040526004361061004a5760003560e01c806319eb34ca1461004f5780636d421eec1461007857806375d0c0dc14610094578063815ae9c2146100bf5780638964c2f7146100fc575b600080fd5b34801561005b57600080fd5b506100766004803603810190610071919061084c565b610139565b005b610092600480360381019061008d9190610907565b610328565b005b3480156100a057600080fd5b506100a96103c4565b6040516100b691906109cf565b60405180910390f35b3480156100cb57600080fd5b506100e660048036038101906100e19190610907565b610452565b6040516100f39190610acd565b60405180910390f35b34801561010857600080fd5b50610123600480360381019061011e9190610907565b61060e565b6040516101309190610b10565b60405180910390f35b600084511180156101775750600073ffffffffffffffffffffffffffffffffffffffff163373ffffffffffffffffffffffffffffffffffffffff1614155b80156101b05750600073ffffffffffffffffffffffffffffffffffffffff168273ffffffffffffffffffffffffffffffffffffffff1614155b6101b957600080fd5b816001826040516101ca9190610b67565b908152602001604051809103902060006101000a81548173ffffffffffffffffffffffffffffffffffffffff021916908373ffffffffffffffffffffffffffffffffffffffff16021790555060405180608001604052808581526020014281526020018481526020018373ffffffffffffffffffffffffffffffffffffffff1681525060028260405161025d9190610b67565b908152602001604051809103902060008201518160000190816102809190610d8a565b506020820151816001015560408201518160020190816102a09190610d8a565b5060608201518160030160006101000a81548173ffffffffffffffffffffffffffffffffffffffff021916908373ffffffffffffffffffffffffffffffffffffffff1602179055509050507f09b4a9d4e432544073816c687a5a6d6e5c8ef151a3cc55eabab7de7ca2ecdc458260405161031a9190610eb7565b60405180910390a150505050565b600081511161033657600080fd5b60006001826040516103489190610b67565b908152602001604051809103902060009054906101000a900473ffffffffffffffffffffffffffffffffffffffff1690508073ffffffffffffffffffffffffffffffffffffffff166108fc349081150290604051600060405180830381858888f193505050501580156103bf573d6000803e3d6000fd5b505050565b600080546103d190610bad565b80601f01602080910402602001604051908101604052809291908181526020018280546103fd90610bad565b801561044a5780601f1061041f5761010080835404028352916020019161044a565b820191906000526020600020905b81548152906001019060200180831161042d57829003601f168201915b505050505081565b61045a610656565b60028260405161046a9190610b67565b908152602001604051809103902060405180608001604052908160008201805461049390610bad565b80601f01602080910402602001604051908101604052809291908181526020018280546104bf90610bad565b801561050c5780601f106104e15761010080835404028352916020019161050c565b820191906000526020600020905b8154815290600101906020018083116104ef57829003601f168201915b505050505081526020016001820154815260200160028201805461052f90610bad565b80601f016020809104026020016040519081016040528092919081815260200182805461055b90610bad565b80156105a85780601f1061057d576101008083540402835291602001916105a8565b820191906000526020600020905b81548152906001019060200180831161058b57829003601f168201915b505050505081526020016003820160009054906101000a900473ffffffffffffffffffffffffffffffffffffffff1673ffffffffffffffffffffffffffffffffffffffff1673ffffffffffffffffffffffffffffffffffffffff16815250509050919050565b60006001826040516106209190610b67565b908152602001604051809103902060009054906101000a900473ffffffffffffffffffffffffffffffffffffffff169050919050565b6040518060800160405280606081526020016000815260200160608152602001600073ffffffffffffffffffffffffffffffffffffffff1681525090565b6000604051905090565b600080fd5b600080fd5b600080fd5b600080fd5b6000601f19601f8301169050919050565b7f4e487b7100000000000000000000000000000000000000000000000000000000600052604160045260246000fd5b6106fb826106b2565b810181811067ffffffffffffffff8211171561071a576107196106c3565b5b80604052505050565b600061072d610694565b905061073982826106f2565b919050565b600067ffffffffffffffff821115610759576107586106c3565b5b610762826106b2565b9050602081019050919050565b82818337600083830152505050565b600061079161078c8461073e565b610723565b9050828152602081018484840111156107ad576107ac6106ad565b5b6107b884828561076f565b509392505050565b600082601f8301126107d5576107d46106a8565b5b81356107e584826020860161077e565b91505092915050565b600073ffffffffffffffffffffffffffffffffffffffff82169050919050565b6000610819826107ee565b9050919050565b6108298161080e565b811461083457600080fd5b50565b60008135905061084681610820565b92915050565b600080600080608085870312156108665761086561069e565b5b600085013567ffffffffffffffff811115610884576108836106a3565b5b610890878288016107c0565b945050602085013567ffffffffffffffff8111156108b1576108b06106a3565b5b6108bd878288016107c0565b93505060406108ce87828801610837565b925050606085013567ffffffffffffffff8111156108ef576108ee6106a3565b5b6108fb878288016107c0565b91505092959194509250565b60006020828403121561091d5761091c61069e565b5b600082013567ffffffffffffffff81111561093b5761093a6106a3565b5b610947848285016107c0565b91505092915050565b600081519050919050565b600082825260208201905092915050565b60005b8381101561098a57808201518184015260208101905061096f565b60008484015250505050565b60006109a182610950565b6109ab818561095b565b93506109bb81856020860161096c565b6109c4816106b2565b840191505092915050565b600060208201905081810360008301526109e98184610996565b905092915050565b600082825260208201905092915050565b6000610a0d82610950565b610a1781856109f1565b9350610a2781856020860161096c565b610a30816106b2565b840191505092915050565b6000819050919050565b610a4e81610a3b565b82525050565b610a5d8161080e565b82525050565b60006080830160008301518482036000860152610a808282610a02565b9150506020830151610a956020860182610a45565b5060408301518482036040860152610aad8282610a02565b9150506060830151610ac26060860182610a54565b508091505092915050565b60006020820190508181036000830152610ae78184610a63565b905092915050565b6000610afa826107ee565b9050919050565b610b0a81610aef565b82525050565b6000602082019050610b256000830184610b01565b92915050565b600081905092915050565b6000610b4182610950565b610b4b8185610b2b565b9350610b5b81856020860161096c565b80840191505092915050565b6000610b738284610b36565b915081905092915050565b7f4e487b7100000000000000000000000000000000000000000000000000000000600052602260045260246000fd5b60006002820490506001821680610bc557607f821691505b602082108103610bd857610bd7610b7e565b5b50919050565b60008190508160005260206000209050919050565b60006020601f8301049050919050565b600082821b905092915050565b600060088302610c407fffffffffffffffffffffffffffffffffffffffffffffffffffffffffffffffff82610c03565b610c4a8683610c03565b95508019841693508086168417925050509392505050565b6000819050919050565b6000610c87610c82610c7d84610a3b565b610c62565b610a3b565b9050919050565b6000819050919050565b610ca183610c6c565b610cb5610cad82610c8e565b848454610c10565b825550505050565b600090565b610cca610cbd565b610cd5818484610c98565b505050565b5b81811015610cf957610cee600082610cc2565b600181019050610cdb565b5050565b601f821115610d3e57610d0f81610bde565b610d1884610bf3565b81016020851015610d27578190505b610d3b610d3385610bf3565b830182610cda565b50505b505050565b600082821c905092915050565b6000610d6160001984600802610d43565b1980831691505092915050565b6000610d7a8383610d50565b9150826002028217905092915050565b610d9382610950565b67ffffffffffffffff811115610dac57610dab6106c3565b5b610db68254610bad565b610dc1828285610cfd565b600060209050601f831160018114610df45760008415610de2578287015190505b610dec8582610d6e565b865550610e54565b601f198416610e0286610bde565b60005b82811015610e2a57848901518255600182019150602085019450602081019050610e05565b86831015610e475784890151610e43601f891682610d50565b8355505b6001600288020188555050505b505050505050565b7f52656769737465726174696f6e20436f6d706c65746564000000000000000000600082015250565b6000610e9260178361095b565b9150610e9d82610e5c565b602082019050919050565b610eb18161080e565b82525050565b60006040820190508181036000830152610ed081610e85565b9050610edf6020830184610ea8565b9291505056fea264697066735822122003aaf36998948623afe35116fa906c9f7e68bb026a63890726af0a0dc1cba52864736f6c63430008110033",
  "immutableReferences": {},
  "source": "// SPDX-License-Identifier: MIT\r\npragma solidity >=0.4.22 <0.9.0;\r\n\r\ncontract TransactionwithEmail {\r\n    string public contractName = \"Transaction With Email EcrPal\";\r\n    mapping(string => address payable) internal AttachedAccount;\r\n    mapping(string => Info) internal RegisterEmailinfo;\r\n\r\n    struct Info { \r\n\r\n        string WalletInfo;\r\n        uint256 RegistrationTime;\r\n        string RegistererIpaddress; \r\n        address Registerer; \r\n    }\r\n\r\n    event FileUploadedEvent(string action, address Registerer);\r\n\r\n    function getAttachedAccount(string memory Email) public view returns (address payable) {\r\n        return AttachedAccount[Email];\r\n    }\r\n\r\n    function getRegisterEmailinfo(string memory Email) public view returns (Info memory) {\r\n        return RegisterEmailinfo[Email];\r\n    }\r\n\r\n\r\n    function RegisterEmail(\r\n        string memory WalletInfo,\r\n        string memory RegistererIpaddress,\r\n        address Registerer,\r\n        string memory Email\r\n    ) public {\r\n        require(\r\n                \r\n                bytes(WalletInfo).length > 0 &&\r\n                msg.sender != address(0) && \r\n                Registerer != address(0)\r\n        );\r\n        \r\n          AttachedAccount[Email] = payable(Registerer);\r\n       RegisterEmailinfo[Email] = Info(\r\n            WalletInfo,\r\n            block.timestamp,\r\n            RegistererIpaddress,\r\n            Registerer\r\n        );\r\n\r\n        emit FileUploadedEvent(\"Registeration Completed\", Registerer);\r\n    }\r\n\r\n    function Transaction( \r\n        string memory Email\r\n    ) payable public {\r\n\r\n        require(\r\n          bytes(Email).length > 0 \r\n        ); \r\n       address payable  Receiver = payable(AttachedAccount[Email]);  \r\n       Receiver.transfer(msg.value);\r\n    }\r\n}",
  "sourcePath": "C:\\Users\\asusl\\OneDrive\\Desktop\\blockchain\\Email-copy\\contracts\\TransactionwithEmail.sol",
  "compiler": {
    "name": "solc",
    "version": "0.8.17+commit.8df45f5f.Emscripten.clang"
  },
  "schemaVersion": "3.4.11",
  "updatedAt": "2022-12-26T08:23:59.443Z",
  "networkType": "ethereum",
  "devdoc": {
    "kind": "dev",
    "methods": {},
    "version": 1
  },
  "userdoc": {
    "kind": "user",
    "methods": {},
    "version": 1
  }
}